{"abi":[{"type":"constructor","inputs":[{"name":"_eduTokenAddress","type":"address","internalType":"address"}],"stateMutability":"nonpayable"},{"type":"function","name":"deposit","inputs":[{"name":"amount","type":"uint256","internalType":"uint256"}],"outputs":[],"stateMutability":"nonpayable"},{"type":"function","name":"eduToken","inputs":[],"outputs":[{"name":"","type":"address","internalType":"contract ERC20"}],"stateMutability":"view"},{"type":"function","name":"getBalance","inputs":[],"outputs":[{"name":"","type":"uint256","internalType":"uint256"}],"stateMutability":"view"},{"type":"function","name":"mainWallet","inputs":[],"outputs":[{"name":"","type":"address","internalType":"address"}],"stateMutability":"view"},{"type":"function","name":"oceanWallet","inputs":[],"outputs":[{"name":"","type":"address","internalType":"address"}],"stateMutability":"view"},{"type":"function","name":"transferThreshold","inputs":[],"outputs":[{"name":"","type":"uint256","internalType":"uint256"}],"stateMutability":"view"}],"bytecode":{"object":"0x6080604052600080546001600160a01b03199081167318a2e07cb2f4a3b6ef0ddefe965819c6e32745d71790915560018054909116737487f839c3b827a74192ab79266ff15502dc3298179055348015605757600080fd5b5060405161056b38038061056b8339810160408190526074916098565b600280546001600160a01b0319166001600160a01b039290921691909117905560c6565b60006020828403121560a957600080fd5b81516001600160a01b038116811460bf57600080fd5b9392505050565b610496806100d56000396000f3fe608060405234801561001057600080fd5b50600436106100625760003560e01c806312065fe01461006757806323b62b751461008257806346737747146100ad57806352d4a9ea146100bd5780638d878889146100d0578063b6b55f25146100e3575b600080fd5b61006f6100f8565b6040519081526020015b60405180910390f35b600054610095906001600160a01b031681565b6040516001600160a01b039091168152602001610079565b61006f683635c9adc5dea0000081565b600154610095906001600160a01b031681565b600254610095906001600160a01b031681565b6100f66100f1366004610405565b61016a565b005b6002546040516370a0823160e01b81523060048201526000916001600160a01b0316906370a0823190602401602060405180830381865afa158015610141573d6000803e3d6000fd5b505050506040513d601f19601f82011682018060405250810190610165919061041e565b905090565b600081116101bf5760405162461bcd60e51b815260206004820181905260248201527f416d6f756e74206d7573742062652067726561746572207468616e207a65726f60448201526064015b60405180910390fd5b6002546040516323b872dd60e01b8152336004820152306024820152604481018390526001600160a01b03909116906323b872dd906064016020604051808303816000875af1158015610216573d6000803e3d6000fd5b505050506040513d601f19601f8201168201806040525081019061023a9190610437565b506002546040516370a0823160e01b8152306004820152683635c9adc5dea00000916001600160a01b0316906370a0823190602401602060405180830381865afa15801561028c573d6000803e3d6000fd5b505050506040513d601f19601f820116820180604052508101906102b0919061041e565b106102bd576102bd6102c0565b50565b6002546040516370a0823160e01b81523060048201526000916001600160a01b0316906370a0823190602401602060405180830381865afa158015610309573d6000803e3d6000fd5b505050506040513d601f19601f8201168201806040525081019061032d919061041e565b9050683635c9adc5dea000008110156103885760405162461bcd60e51b815260206004820181905260248201527f496e73756666696369656e742062616c616e636520746f207472616e7366657260448201526064016101b6565b60025460005460405163a9059cbb60e01b81526001600160a01b0391821660048201526024810184905291169063a9059cbb906044016020604051808303816000875af11580156103dd573d6000803e3d6000fd5b505050506040513d601f19601f820116820180604052508101906104019190610437565b5050565b60006020828403121561041757600080fd5b5035919050565b60006020828403121561043057600080fd5b5051919050565b60006020828403121561044957600080fd5b8151801515811461045957600080fd5b939250505056fea26469706673582212207eac36d8f26535183f683f2f64e4da6d30d491fbe28167f0b205c42f6d987b4464736f6c634300081a0033","linkReferences":{}},"methodIdentifiers":{"deposit(uint256)":"b6b55f25","eduToken()":"8d878889","getBalance()":"12065fe0","mainWallet()":"23b62b75","oceanWallet()":"52d4a9ea","transferThreshold()":"46737747"},"id":5}